{
  "contractName": "Depreciable",
  "abi": [
    {
      "constant": true,
      "inputs": [],
      "name": "deprecated",
      "outputs": [
        {
          "name": "",
          "type": "bool"
        }
      ],
      "payable": false,
      "stateMutability": "view",
      "type": "function"
    },
    {
      "constant": true,
      "inputs": [],
      "name": "owner",
      "outputs": [
        {
          "name": "",
          "type": "address"
        }
      ],
      "payable": false,
      "stateMutability": "view",
      "type": "function"
    },
    {
      "constant": false,
      "inputs": [
        {
          "name": "_newOwner",
          "type": "address"
        }
      ],
      "name": "changeOwner",
      "outputs": [],
      "payable": false,
      "stateMutability": "nonpayable",
      "type": "function"
    },
    {
      "constant": false,
      "inputs": [
        {
          "name": "_deprecated",
          "type": "bool"
        }
      ],
      "name": "setDeprecated",
      "outputs": [],
      "payable": false,
      "stateMutability": "nonpayable",
      "type": "function"
    }
  ],
  "bytecode": "0x6080604052336000806101000a81548173ffffffffffffffffffffffffffffffffffffffff021916908373ffffffffffffffffffffffffffffffffffffffff16021790555060008060146101000a81548160ff02191690831515021790555034801561006a57600080fd5b506102ff8061007a6000396000f300608060405260043610610062576000357c0100000000000000000000000000000000000000000000000000000000900463ffffffff1680630e136b19146100675780638da5cb5b14610096578063a6f9dae1146100ed578063d848dee714610130575b600080fd5b34801561007357600080fd5b5061007c61015f565b604051808215151515815260200191505060405180910390f35b3480156100a257600080fd5b506100ab610172565b604051808273ffffffffffffffffffffffffffffffffffffffff1673ffffffffffffffffffffffffffffffffffffffff16815260200191505060405180910390f35b3480156100f957600080fd5b5061012e600480360381019080803573ffffffffffffffffffffffffffffffffffffffff169060200190929190505050610197565b005b34801561013c57600080fd5b5061015d60048036038101908080351515906020019092919050505061025b565b005b600060149054906101000a900460ff1681565b6000809054906101000a900473ffffffffffffffffffffffffffffffffffffffff1681565b6000809054906101000a900473ffffffffffffffffffffffffffffffffffffffff1673ffffffffffffffffffffffffffffffffffffffff163373ffffffffffffffffffffffffffffffffffffffff161415156101f257600080fd5b60008173ffffffffffffffffffffffffffffffffffffffff161415151561021857600080fd5b806000806101000a81548173ffffffffffffffffffffffffffffffffffffffff021916908373ffffffffffffffffffffffffffffffffffffffff16021790555050565b6000809054906101000a900473ffffffffffffffffffffffffffffffffffffffff1673ffffffffffffffffffffffffffffffffffffffff163373ffffffffffffffffffffffffffffffffffffffff161415156102b657600080fd5b80600060146101000a81548160ff021916908315150217905550505600a165627a7a72305820e9eab990bb19c94293d3f296e0818a2504295146c99ad3f0fcf5b0ab538e61560029",
  "source": "pragma solidity ^0.4.24;\n\nimport \"./Ownable.sol\";\n\ncontract Depreciable is Ownable {\n    bool public deprecated = false;\n\n    modifier ifDeprecated {require(deprecated);_;}\n    modifier ifNotDeprecated {require(!deprecated);_;}\n\n    function setDeprecated(bool _deprecated) public onlyOwner {\n        deprecated = _deprecated;\n    }\n}\n",
  "sourcePath": "/Users/red/ethereum/ship-my-stuff/contracts/lib/Depreciable.sol",
  "compiler": {
    "name": "solc",
    "version": "0.4.24+commit.e67f0147.Emscripten.clang"
  },
  "schemaVersion": "2.0.1",
  "updatedAt": "2018-07-17T06:36:56.227Z"
}