{
  "contractName": "HashGen",
  "abi": [
    {
      "constant": true,
      "inputs": [
        {
          "name": "_content",
          "type": "string"
        }
      ],
      "name": "simpleHash",
      "outputs": [
        {
          "name": "",
          "type": "bytes32"
        }
      ],
      "payable": false,
      "stateMutability": "pure",
      "type": "function"
    }
  ],
  "bytecode": "0x6101d9610030600b82828239805160001a6073146000811461002057610022565bfe5b5030600052607381538281f3007300000000000000000000000000000000000000003014608060405260043610610058576000357c0100000000000000000000000000000000000000000000000000000000900463ffffffff168063f8f5eef11461005d575b600080fd5b6100b7600480360381019080803590602001908201803590602001908080601f01602080910402602001604051908101604052809392919081815260200183838082843782019150505050505091929192905050506100d5565b60405180826000191660001916815260200191505060405180910390f35b6000816040516020018082805190602001908083835b60208310151561011057805182526020820191506020810190506020830392506100eb565b6001836020036101000a0380198251168184511680821785525050505050509050019150506040516020818303038152906040526040518082805190602001908083835b6020831015156101795780518252602082019150602081019050602083039250610154565b6001836020036101000a038019825116818451168082178552505050505050905001915050604051809103902090509190505600a165627a7a72305820c201ae01fde8dab220128cb90dd88e4beb87565b645832120b685110ba0e5a540029",
  "source": "pragma solidity ^0.4.24;\n\nlibrary HashGen {\n    function simpleHash(string _content) public pure returns(bytes32) {\n        return keccak256(abi.encodePacked(_content));\n    }\n}\n",
  "sourcePath": "/Users/red/ethereum/ship-my-stuff/contracts/HashGen.sol",
  "compiler": {
    "name": "solc",
    "version": "0.4.24+commit.e67f0147.Emscripten.clang"
  },
  "schemaVersion": "2.0.1",
  "updatedAt": "2018-07-21T16:13:13.461Z"
}